{
  "_format": "hh-sol-artifact-1",
  "contractName": "FlashSwap",
  "sourceName": "contracts/FlashSwap.sol",
  "abi": [
    {
      "inputs": [
        {
          "internalType": "contract ISwapRouter",
          "name": "_swapRouter",
          "type": "address"
        },
        {
          "internalType": "address",
          "name": "_factory",
          "type": "address"
        },
        {
          "internalType": "address",
          "name": "_WETH9",
          "type": "address"
        }
      ],
      "stateMutability": "nonpayable",
      "type": "constructor"
    },
    {
      "anonymous": false,
      "inputs": [
        {
          "indexed": false,
          "internalType": "string",
          "name": "",
          "type": "string"
        },
        {
          "indexed": false,
          "internalType": "uint256",
          "name": "",
          "type": "uint256"
        },
        {
          "indexed": false,
          "internalType": "uint256",
          "name": "",
          "type": "uint256"
        }
      ],
      "name": "EventFlashSwap",
      "type": "event"
    },
    {
      "inputs": [],
      "name": "WETH9",
      "outputs": [
        {
          "internalType": "address",
          "name": "",
          "type": "address"
        }
      ],
      "stateMutability": "view",
      "type": "function"
    },
    {
      "inputs": [],
      "name": "factory",
      "outputs": [
        {
          "internalType": "address",
          "name": "",
          "type": "address"
        }
      ],
      "stateMutability": "view",
      "type": "function"
    },
    {
      "inputs": [
        {
          "components": [
            {
              "internalType": "address",
              "name": "token0",
              "type": "address"
            },
            {
              "internalType": "address",
              "name": "token1",
              "type": "address"
            },
            {
              "internalType": "uint24",
              "name": "fee1",
              "type": "uint24"
            },
            {
              "internalType": "uint256",
              "name": "amount0",
              "type": "uint256"
            },
            {
              "internalType": "uint256",
              "name": "amount1",
              "type": "uint256"
            },
            {
              "internalType": "uint24",
              "name": "fee2",
              "type": "uint24"
            }
          ],
          "internalType": "struct FlashSwap.FlashParams",
          "name": "params",
          "type": "tuple"
        }
      ],
      "name": "initFlash",
      "outputs": [],
      "stateMutability": "nonpayable",
      "type": "function"
    },
    {
      "inputs": [],
      "name": "refundETH",
      "outputs": [],
      "stateMutability": "payable",
      "type": "function"
    },
    {
      "inputs": [],
      "name": "swapRouter",
      "outputs": [
        {
          "internalType": "contract ISwapRouter",
          "name": "",
          "type": "address"
        }
      ],
      "stateMutability": "view",
      "type": "function"
    },
    {
      "inputs": [
        {
          "internalType": "address",
          "name": "token",
          "type": "address"
        },
        {
          "internalType": "uint256",
          "name": "amountMinimum",
          "type": "uint256"
        },
        {
          "internalType": "address",
          "name": "recipient",
          "type": "address"
        }
      ],
      "name": "sweepToken",
      "outputs": [],
      "stateMutability": "payable",
      "type": "function"
    },
    {
      "inputs": [
        {
          "internalType": "uint256",
          "name": "fee0",
          "type": "uint256"
        },
        {
          "internalType": "uint256",
          "name": "fee1",
          "type": "uint256"
        },
        {
          "internalType": "bytes",
          "name": "data",
          "type": "bytes"
        }
      ],
      "name": "uniswapV3FlashCallback",
      "outputs": [],
      "stateMutability": "nonpayable",
      "type": "function"
    },
    {
      "inputs": [
        {
          "internalType": "uint256",
          "name": "amountMinimum",
          "type": "uint256"
        },
        {
          "internalType": "address",
          "name": "recipient",
          "type": "address"
        }
      ],
      "name": "unwrapWETH9",
      "outputs": [],
      "stateMutability": "payable",
      "type": "function"
    },
    {
      "stateMutability": "payable",
      "type": "receive"
    }
  ],
  "bytecode": "0x60e06040523480156200001157600080fd5b50604051620018253803806200182583398101604081905262000034916200005c565b6001600160601b0319606092831b811660805290821b811660a05291901b1660c052620000c8565b60008060006060848603121562000071578283fd5b83516200007e81620000af565b60208501519093506200009181620000af565b6040850151909250620000a481620000af565b809150509250925092565b6001600160a01b0381168114620000c557600080fd5b50565b60805160601c60a05160601c60c05160601c6116ec62000139600039806104a95280610623528061064e528061069f528061080b525080608f52806101cd52806102b852806103455280610eac5280610ef25280610f665250806103b052806104cd52806105e252506116ec6000f3fe60806040526004361061007f5760003560e01c8063c31c9c071161004e578063c31c9c071461015a578063c45a01551461016f578063df2ab5bb14610184578063e9cbafb014610197576100ef565b806312210e8a146100f457806349404b7c146100fc5780634aa4a4fc1461010f578063a1aeb7dc1461013a576100ef565b366100ef57336001600160a01b037f000000000000000000000000000000000000000000000000000000000000000016146100ed576040805162461bcd60e51b81526020600482015260096024820152684e6f7420574554483960b81b604482015290519081900360640190fd5b005b600080fd5b6100ed6101b7565b6100ed61010a36600461137a565b6101c9565b34801561011b57600080fd5b50610124610343565b6040516101319190611420565b60405180910390f35b34801561014657600080fd5b506100ed6101553660046112d8565b610367565b34801561016657600080fd5b506101246104a7565b34801561017b57600080fd5b506101246104cb565b6100ed6101923660046111d1565b6104ef565b3480156101a357600080fd5b506100ed6101b23660046113a5565b6105cd565b47156101c7576101c73347610a09565b565b60007f00000000000000000000000000000000000000000000000000000000000000006001600160a01b03166370a08231306040518263ffffffff1660e01b815260040180826001600160a01b0316815260200191505060206040518083038186803b15801561023857600080fd5b505afa15801561024c573d6000803e3d6000fd5b505050506040513d602081101561026257600080fd5b50519050828110156102b0576040805162461bcd60e51b8152602060048201526012602482015271496e73756666696369656e7420574554483960701b604482015290519081900360640190fd5b801561033e577f00000000000000000000000000000000000000000000000000000000000000006001600160a01b0316632e1a7d4d826040518263ffffffff1660e01b815260040180828152602001915050600060405180830381600087803b15801561031c57600080fd5b505af1158015610330573d6000803e3d6000fd5b5050505061033e8282610a09565b505050565b7f000000000000000000000000000000000000000000000000000000000000000081565b6000604051806060016040528083600001516001600160a01b0316815260200183602001516001600160a01b03168152602001836040015162ffffff16815250905060006103d57f000000000000000000000000000000000000000000000000000000000000000083610af8565b9050806001600160a01b031663490e6cbc30856060015186608001516040518060a001604052808960600151815260200189608001518152602001336001600160a01b031681526020018881526020018960a0015162ffffff168152506040516020016104429190611634565b6040516020818303038152906040526040518563ffffffff1660e01b81526004016104709493929190611434565b600060405180830381600087803b15801561048a57600080fd5b505af115801561049e573d6000803e3d6000fd5b50505050505050565b7f000000000000000000000000000000000000000000000000000000000000000081565b7f000000000000000000000000000000000000000000000000000000000000000081565b6000836001600160a01b03166370a08231306040518263ffffffff1660e01b815260040180826001600160a01b0316815260200191505060206040518083038186803b15801561053e57600080fd5b505afa158015610552573d6000803e3d6000fd5b505050506040513d602081101561056857600080fd5b50519050828110156105b6576040805162461bcd60e51b815260206004820152601260248201527124b739bab33334b1b4b2b73a103a37b5b2b760711b604482015290519081900360640190fd5b80156105c7576105c7848383610bdc565b50505050565b60006105db8284018461120c565b905061060b7f00000000000000000000000000000000000000000000000000000000000000008260600151610d2a565b506060810151805160209091015182516106489083907f000000000000000000000000000000000000000000000000000000000000000090610d53565b610677817f00000000000000000000000000000000000000000000000000000000000000008560200151610d53565b6000610687846020015188610e9a565b9050600061069985600001518a610e9a565b905060007f00000000000000000000000000000000000000000000000000000000000000006001600160a01b031663414bf389604051806101000160405280876001600160a01b03168152602001886001600160a01b03168152602001896080015162ffffff168152602001306001600160a01b03168152602001428152602001896020015181526020016000815260200160006001600160a01b03168152506040518263ffffffff1660e01b815260040161075591906115cb565b602060405180830381600087803b15801561076f57600080fd5b505af1158015610783573d6000803e3d6000fd5b505050506040513d601f19601f820116820180604052508101906107a79190611362565b60408051610100810182526001600160a01b038881168252878116602083015260808a81015162ffffff16838501523060608401524290830152895160a0830152600060c0830181905260e08301819052925163414bf38960e01b815293945091927f00000000000000000000000000000000000000000000000000000000000000009092169163414bf38991610840916004016115cb565b602060405180830381600087803b15801561085a57600080fd5b505af115801561086e573d6000803e3d6000fd5b505050506040513d601f19601f820116820180604052508101906108929190611362565b905060006108a488600001518d610e9a565b905060006108b689602001518d610e9a565b90506108c3883084610d53565b6108ce873083610d53565b81156108e0576108e088303385610eaa565b80156108f2576108f287303384610eaa565b81841115610925576000610906858461103a565b9050610913893083610d53565b61092389308c6040015184610eaa565b505b80831115610958576000610939848361103a565b9050610946893083610d53565b61095688308c6040015184610eaa565b505b885160208a01516040516000805160206116978339815191529261097d929091611543565b60405180910390a160008051602061169783398151915285876040516109a49291906114a5565b60405180910390a160008051602061169783398151915284846040516109cb9291906114f4565b60405180910390a160008051602061169783398151915282826040516109f2929190611587565b60405180910390a150505050505050505050505050565b604080516000808252602082019092526001600160a01b0384169083906040518082805190602001908083835b60208310610a555780518252601f199092019160209182019101610a36565b6001836020036101000a03801982511681845116808217855250505050505090500191505060006040518083038185875af1925050503d8060008114610ab7576040519150601f19603f3d011682016040523d82523d6000602084013e610abc565b606091505b505090508061033e576040805162461bcd60e51b815260206004820152600360248201526253544560e81b604482015290519081900360640190fd5b600081602001516001600160a01b031682600001516001600160a01b031610610b2057600080fd5b50805160208083015160409384015184516001600160a01b0394851681850152939091168385015262ffffff166060808401919091528351808403820181526080840185528051908301206001600160f81b031960a085015294901b6bffffffffffffffffffffffff191660a183015260b58201939093527fe34f199b19b2b4f47f68442619d555527d244f78a3297ea89325f843f87b8b5460d5808301919091528251808303909101815260f5909101909152805191012090565b604080516001600160a01b038481166024830152604480830185905283518084039091018152606490920183526020820180516001600160e01b031663a9059cbb60e01b1781529251825160009485949389169392918291908083835b60208310610c585780518252601f199092019160209182019101610c39565b6001836020036101000a0380198251168184511680821785525050505050509050019150506000604051808303816000865af19150503d8060008114610cba576040519150601f19603f3d011682016040523d82523d6000602084013e610cbf565b606091505b5091509150818015610ced575080511580610ced5750808060200190516020811015610cea57600080fd5b50515b610d23576040805162461bcd60e51b815260206004820152600260248201526114d560f21b604482015290519081900360640190fd5b5050505050565b6000610d368383610af8565b9050336001600160a01b03821614610d4d57600080fd5b92915050565b604080516001600160a01b038481166024830152604480830185905283518084039091018152606490920183526020820180516001600160e01b031663095ea7b360e01b1781529251825160009485949389169392918291908083835b60208310610dcf5780518252601f199092019160209182019101610db0565b6001836020036101000a0380198251168184511680821785525050505050509050019150506000604051808303816000865af19150503d8060008114610e31576040519150601f19603f3d011682016040523d82523d6000602084013e610e36565b606091505b5091509150818015610e64575080511580610e645750808060200190516020811015610e6157600080fd5b50515b610d23576040805162461bcd60e51b8152602060048201526002602482015261534160f01b604482015290519081900360640190fd5b80820182811015610d4d57600080fd5b7f00000000000000000000000000000000000000000000000000000000000000006001600160a01b0316846001600160a01b0316148015610eeb5750804710155b1561100d577f00000000000000000000000000000000000000000000000000000000000000006001600160a01b031663d0e30db0826040518263ffffffff1660e01b81526004016000604051808303818588803b158015610f4b57600080fd5b505af1158015610f5f573d6000803e3d6000fd5b50505050507f00000000000000000000000000000000000000000000000000000000000000006001600160a01b031663a9059cbb83836040518363ffffffff1660e01b815260040180836001600160a01b0316815260200182815260200192505050602060405180830381600087803b158015610fdb57600080fd5b505af1158015610fef573d6000803e3d6000fd5b505050506040513d602081101561100557600080fd5b506105c79050565b6001600160a01b03831630141561102e57611029848383610bdc565b6105c7565b6105c78484848461104a565b80820382811115610d4d57600080fd5b604080516001600160a01b0385811660248301528481166044830152606480830185905283518084039091018152608490920183526020820180516001600160e01b03166323b872dd60e01b178152925182516000948594938a169392918291908083835b602083106110ce5780518252601f1990920191602091820191016110af565b6001836020036101000a0380198251168184511680821785525050505050509050019150506000604051808303816000865af19150503d8060008114611130576040519150601f19603f3d011682016040523d82523d6000602084013e611135565b606091505b5091509150818015611163575080511580611163575080806020019051602081101561116057600080fd5b50515b61119a576040805162461bcd60e51b815260206004820152600360248201526229aa2360e91b604482015290519081900360640190fd5b505050505050565b80356001600160a01b03811681146111b957600080fd5b919050565b803562ffffff811681146111b957600080fd5b6000806000606084860312156111e5578283fd5b6111ee846111a2565b925060208401359150611203604085016111a2565b90509250925092565b600081830360e081121561121e578182fd5b6040805160a0810167ffffffffffffffff828210818311171561123d57fe5b81845286358352602087013560208401526112598488016111a2565b838501526060605f198601121561126e578586fd5b83519450606085019150848210818311171561128657fe5b508252611295606086016111a2565b83526112a3608086016111a2565b60208401526112b460a086016111be565b828401528260608201526112ca60c086016111be565b608082015295945050505050565b600060c082840312156112e9578081fd5b60405160c0810181811067ffffffffffffffff8211171561130657fe5b604052611312836111a2565b8152611320602084016111a2565b6020820152611331604084016111be565b6040820152606083013560608201526080830135608082015261135660a084016111be565b60a08201529392505050565b600060208284031215611373578081fd5b5051919050565b6000806040838503121561138c578182fd5b8235915061139c602084016111a2565b90509250929050565b600080600080606085870312156113ba578081fd5b8435935060208501359250604085013567ffffffffffffffff808211156113df578283fd5b818701915087601f8301126113f2578283fd5b813581811115611400578384fd5b886020828501011115611411578384fd5b95989497505060200194505050565b6001600160a01b0391909116815260200190565b600060018060a01b038616825260208581840152846040840152608060608401528351806080850152825b8181101561147b5785810183015185820160a00152820161145f565b8181111561148c578360a083870101525b50601f01601f19169290920160a0019695505050505050565b60608082526022908201527f626f72726f772061667465722066656520746f6b656e3020616e6420746f6b656080820152616e3160f01b60a08201526020810192909252604082015260c00190565b60608082526022908201527f67657420737761702062616c616e636520746f6b656e3020616e6420746f6b656080820152616e3160f01b60a08201526020810192909252604082015260c00190565b60608082526018908201527f626f72726f7720746f6b656e3020616e6420746f6b656e31000000000000000060808201526020810192909252604082015260a00190565b60608082526019908201527f7061794261636b20746f6b656e3020616e6420746f6b656e310000000000000060808201526020810192909252604082015260a00190565b81516001600160a01b03908116825260208084015182169083015260408084015162ffffff16908301526060808401518216908301526080808401519083015260a0838101519083015260c0808401519083015260e09283015116918101919091526101000190565b81518152602080830151818301526040808401516001600160a01b03908116828501526060808601518051831691860191909152928301511660808085019190915291015162ffffff90811660a084015292015190911660c082015260e0019056fe9625d24433d47b9c77d630fcd18d86fdae93cf2b7aed74078fa48a3f7f46461da2646970667358221220cbb23215a682d77e8078d0662638af4111b64666b79435e1b8e39c86b00b492464736f6c63430007060033",
  "linkReferences": {},
  "deployedLinkReferences": {}
}